:020000040800F2
:100000000C410020AD010008FD250008FD25000879
:10001000FD250008FD250008FD250008FD25000838
:10002000FD250008FD250008FD250008FD25000828
:10003000FD250008FD250008FD250008FD25000818
:10004000FD250008FD250008FD250008FD25000808
:10005000FD250008FD250008FD250008FD250008F8
:10006000FD250008FD250008FD250008FD250008E8
:10007000FD250008FD250008FD250008FD250008D8
:10008000FD250008FD250008FD250008FD250008C8
:10009000FD250008FD250008FD250008FD250008B8
:1000A000FD250008FD250008FD250008FD250008A8
:1000B000FD250008FD250008FD250008FD25000898
:1000C000FD250008FD250008FD250008FD25000888
:1000D000FD250008FD250008FD250008FD25000878
:1000E000FD250008FD250008FD250008FD25000868
:1000F000FD250008FD250008FD250008FD25000858
:10010000FD250008FD250008FD250008FD25000847
:10011000FD250008FD250008FD250008FD25000837
:10012000FD250008FD250008FD250008FD25000827
:10013000FD250008FD250008FD250008FD25000817
:10014000FD250008FD250008FD250008FD25000807
:10015000FD250008FD250008FD250008FD250008F7
:10016000FD250008FD250008FD250008FD250008E7
:10017000FD250008FD250008FD250008FD250008D7
:10018000FD250008FD25000889080BD020F003009C
:100190004BF6EF62CDF6AD62A1F10101002940F806
:1001A000042BF9D14FF0000E02F078BD80B582B07B
:1001B00000AF4FF080533B6004E03B681A1D3A608B
:1001C00000221A603B68224A9342F6D900F06AFC8A
:1001D00000F04CFA00F048F8412000F02FFA1D4BD7
:1001E0003B6004E03B681A1D3A6000221A603B68DD
:1001F000194A9342F6D3422000F020FA174B7B6055
:10020000174B3B6007E03B681A1D3A607A68111D86
:10021000796012681A603B68124A9342F3D3432014
:1002200000F00CFA01F0B2F8442000F007FA02F0F6
:100230002FFD462000F002FA0D2000F0FFF90A2001
:1002400000F0FCF904484FF48061FFF79DFF00BF08
:10025000FF7F001000090020103D0020141E03083D
:10026000000000203408002080B400AFBD465DF8D7
:10027000047B704780B58EB000AF78607B6803F078
:10028000F0031B093B623B6A072B02D96FF0150391
:100290005FE1914A3B6A52F82330FB617B6803F0CF
:1002A0000F03BB617B6803F44023B3F5002F17D025
:1002B000B3F5402F17D0B3F5802F02D000237B6217
:1002C00014E07B6803F48073002B14BF0123002328
:1002D000DBB27868194600F053F901237B6205E030
:1002E00002237B6202E003237B6200BFEFF31083F3
:1002F00072B67B817B89FB82FB691B687B63BB6970
:100300005B001A4603239340DB431A467B6B134082
:100310007B63BB695B001A467B6A93407A6B13432D
:100320007B63FB697A6B1A6000233B637B6A032B58
:100330000FD07B6803F44033B3F5803F03D0B3F5AF
:10034000003F03D005E001233B6302E002233B634F
:1003500000BFFB690C331B687B63BB695B001A46FB
:1003600003239340DB431A467B6B13407B63BB69DB
:100370005B001A463B6B93407A6B13437B63FB69CC
:100380000C331A467B6B13607B6A032B19D1FB6914
:100390002C331B687B63BB69012202FA03F3DB4346
:1003A0001A467B6B13407B63BB69012202FA03F39D
:1003B0001A467B6B13437B63FB692C331A467B6BBA
:1003C00013607B6A022B05D17B6803F470431B0B1F
:1003D0003B6301E000233B63BB69072B04D8202368
:1003E000FB62BB69BB6204E02423FB62BB69083B80
:1003F000BB62FA69FB6A13441B687B63BB6A9B00A0
:100400001A460F239340DB431A467B6B13407B63F2
:10041000BB6A9B001A463B6B93407A6B13437B632A
:10042000FA69FB6A13441A467B6B13607B6A012BE3
:1004300002D07B6A022B18D17B6803F44063B3F5CA
:10044000006F0BD0B3F5406F0BD0B3F5806F02D0C7
:1004500000233B6308E001233B6305E002233B6389
:1004600002E003233B6300BF01E000233B63FB6921
:1004700008331B687B63BB695B001A460323934008
:10048000DB431A467B6B13407B63BB695B001A46F8
:100490003B6B93407A6B13437B63FB6908331A46CB
:1004A0007B6B1360FB6904331B687B63BB690122B0
:1004B00002FA03F33B637B6A012B02D07B6A022BB7
:1004C0000CD17B6803F40073002B07D07A6B3B6B75
:1004D00013437B6307E000BF8CE102083B6BDB4307
:1004E0007A6B13407B63FB6904331A467B6B1360A2
:1004F0007B6A012B25D07B6803F48073002B20D00E
:10050000BB6903F00C02154B13443B613B691B684C
:100510007B63BB6903F003039B00FB600F22FB6856
:1005200002FA03F3DB431A467B6B13407B633A6AA0
:10053000FB6802FA03F37A6B13437B633B697A6BC4
:100540001A60FB8A3B813B8913F0010F00D162B630
:10055000002318463837BD4680BD00BF0800014063
:1005600080B582B000AF78607B68DBB27B60786872
:10057000FFF780FE034618460837BD4680BD00BF22
:1005800080B487B000AF78600B46FB707B6803F0E7
:10059000F0031B093B613B69072B1CD8104A3B69E0
:1005A00052F82330FB607B6803F00F03BB60FB78DD
:1005B000002B05D0BB68012202FA03F37B6105E042
:1005C000BB6810331A46012393407B61FB681833E4
:1005D0001A467B6913601C37BD465DF8047B704783
:1005E0008CE1020880B487B000AF78607B6803F0CC
:1005F000F0031B097B617B69072B16D80E4A7B69C8
:1006000052F823303B617B6803F00F03FB603B69CA
:1006100010331B68FA68012101FA02F21340002B23
:1006200014BF01230023DBB200E0002318461C376F
:10063000BD465DF8047B70478CE1020880B483B04E
:1006400000AF0346FB7100BF064B1B6803F080033D
:10065000002BF9D0044AFB7913600C37BD465DF8D6
:10066000047B70471C3801402838014080B582B0B7
:1006700000AF1D4800214FF4804201F00DFF1B48E0
:10068000FFF7F8FD1A48FFF7F5FD1A4B1B687B6072
:100690007B6803F08F037B60164A7B681360164B00
:1006A0001B687B607A68154B13407B60124A7B683D
:1006B0001360134B1B687B607A68124B13407B609E
:1006C0000F4A7B681360104B45221A600A4B1B6867
:1006D0007B607B6843F00D037B60074A7B68136097
:1006E0000837BD4680BD00BF601002400970080099
:1006F000177008000438014000380140010000E094
:1007000008380140000081FF0C38014080B483B0FC
:1007100000AF174B1B687B607B6843F480737B6082
:10072000134A7B681360134B00221A60104B1B683E
:100730007B607B6823F0012323F410237B600C4A49
:100740007B6813600C4B4FF480521A60084B1B6897
:100750007B607B6823F480237B60054A7B681360A1
:10076000064B00221A600C37BD465DF8047B7047CB
:1007700000100240081002400C1002401810024005
:1007800080B483B000AF094B1B687B607B6843F08B
:1007900001037B607B6843F002037B60034A7B6854
:1007A00013600C37BD465DF8047B7047481002406B
:1007B00080B483B000AF0B4B1B687B607B6843F059
:1007C000FF037B607B6843F400537B607B6843F4EA
:1007D00080237B60034A7B6813600C37BD465DF85D
:1007E000047B70474C10024080B483B000AF054BCF
:1007F0001B687B60034A7B6813600C37BD465DF85D
:10080000047B70475010024080B483B000AF164B99
:100810001B687B607B6843F002037B607B6843F46A
:1008200000337B607B6843F480237B607B6843F408
:1008300000237B607B6843F480137B607B6843F418
:1008400000137B607B6843F080537B60064A7B68C3
:100850001360064B1B687B60044A7B6813600C378F
:10086000BD465DF8047B7047581002405C100240A2
:1008700080B483B000AF0D4B1B687B607B6843F096
:1008800001037B607B6843F080037B607B6843F4FB
:1008900000637B607B6843F480437B60034A7B6832
:1008A00013600C37BD465DF8047B70476010024052
:1008B00080B483B000AF094B1B687B607B6843F05A
:1008C00080637B607B6843F040537B60034A7B68B6
:1008D00013600C37BD465DF8047B704788100240FA
:1008E00080B582B000AF504B1B687B607B6843F4DF
:1008F00080337B604C4A7B6813604C4B3B6009E063
:10090000494B1B6803F40033002B00D005E03B6823
:10091000013B3B603B68002BF2DC3B68002B7FDD3A
:10092000434B1B687B607B6823F0F0037B60404A8D
:100930007B6813603E4B1B687B607B6823F46053CD
:100940007B603B4A7B681360394B1B687B607B682C
:1009500023F4E0637B60364A7B681360354B1B6889
:100960007B604FF403637B607B6843F080737B6044
:100970007B6843F003037B602E4A7B6813602A4B3D
:100980001B687B607B6843F080737B60264A7B68D2
:10099000136000BF244B1B6803F00073002BF9D0D9
:1009A000254B1B687B604FF400637B607B6843F4DE
:1009B00080137B60204A7B6813601B4B1B687B6045
:1009C0007B6843F080637B60174A7B68136000BFDD
:1009D000154B1B6803F00063002BF9D040F2047341
:1009E0007B60164A7B681360114B1B687B607B68D9
:1009F00023F003037B607B6843F003037B600C4AB6
:100A00007B68136000BF0A4B1B6803F00C030C2BC0
:100A1000F9D100F077FD012000F0B8FD00F04CFDA9
:100A20000837BD4680BD00BF00100240ECF70C0047
:100A3000081002400C10024010100240002002403A
:100A400080B500AFFFF734FFFFF79AFEFFF7B0FE67
:100A5000FFF7CAFEFFF7D8FEFFF70AFF80BD00BF11
:100A600080B582B000AF01F063F80346FB71FB79FB
:100A7000002B11D1012000F0BFFD094800214FF4E7
:100A8000803201F009FD06484FF48031002201F068
:100A900003FD002000F0B0FD0837BD4680BD00BF5B
:100AA0009010024080B500AFFFF730FEFFF7D8FF8F
:100AB000FFF716FFFFF7C4FF80BD00BF80B483B00F
:100AC00000AF786039607B685A6D3B6813441B68DF
:100AD00018460C37BD465DF8047B704780B485B07E
:100AE00000AFF860B9607A60FB685A6DBB68134468
:100AF0001A467B6813601437BD465DF8047B704767
:100B000080B584B000AF78600B467B807B687A88C4
:100B10009A8778680021FFF7D1FFF860FB6823F41B
:100B2000D073FB607B8803F4D073FA681343FB60D7
:100B300078680021FA68FFF7D1FF78680821FFF78D
:100B4000BDFFF860FB6823F00103FB607B8803F0C6
:100B50000103FA681343FB6078680821FA68FFF71D
:100B6000BDFF1037BD4680BD80B584B000AF786052
:100B70000B467B80EFF3108372B6BB81BB89FB8190
:100B80007B8878681946FFF7BBFFFB897B817B89EF
:100B900013F0010F00D162B61037BD4680BD00BF13
:100BA00080B586B000AF78603960EFF3108372B61D
:100BB0007B817B89FB823B68002B17D07868002102
:100BC000FFF77CFF386178680821FFF777FFF8604E
:100BD0003B699BB203F4D0739AB2FB689BB203F0FB
:100BE00001039BB213439AB23B681A8078680021D4
:100BF000FFF786FFFB8A3B813B8913F0010F00D191
:100C000062B61837BD4680BD80B588B000AF786049
:100C10007B681B6B3B613B691B6D5A003B699B6C9E
:100C20005B081A443B699B6CB2FBF3F3FB603869C9
:100C30000021FFF743FFB861FB68642B08D9FB680C
:100C400001335B087B61BB6923F40043BB610DE0AA
:100C5000FA684FF6F0731340FA6802F00F02520878
:100C600013437B61BB6943F40043BB6138690021D6
:100C7000BA69FFF733FF38690C217A69FFF72EFF55
:100C800038690021FFF71AFFF861FB6923F08053F0
:100C900023F4B053FB613B6993F84130012B04D13D
:100CA000FB6943F4C063FB6108E03B6993F84130A2
:100CB000022B03D1FB6943F48063FB613B6993F82A
:100CC0004230092B09D03B6993F84230082B09D1F7
:100CD0003B6993F84130002B04D0FB6943F4805307
:100CE000FB610DE03B6993F84230072B08D13B696B
:100CF00093F84130002B03D1FB6943F08053FB6133
:100D000038690021FA69FFF7E9FE38690421FFF725
:100D1000D5FEF861FB6923F44053FB613B6993F80E
:100D20004330002B03D0FB6943F40053FB613B6964
:100D300093F84430002B03D0FB6943F40043FB617C
:100D400038690421FA69FFF7C9FE38690821FFF7FD
:100D5000B5FEF861FB6923F44073FB613869082133
:100D6000FA69FFF7BBFE2037BD4680BD80B586B06F
:100D700000AF78600B46FB707B681B6BFB60FB6809
:100D80005B6D214A934222D01F4A934206D81F4AE4
:100D9000934210D01E4A934213D032E01D4A934230
:100DA0001BD01D4A934200D02BE04FF480437B615F
:100DB0001A4B3B6117E04FF400337B61184B3B61EA
:100DC00011E04FF480237B61154B3B610BE04FF446
:100DD00000237B61124B3B6105E04FF480137B6184
:100DE0000F4B3B6100BFFB78002B05D03869002119
:100DF0007A6901F051FB04E038697969002201F059
:100E00004BFB1837BD4680BD004C004000440040FD
:100E1000004800400050004000380140601002408F
:100E20005810024080B584B000AF78607B681B6BBF
:100E3000BB6078680121FFF799FFBB689B6D18467E
:100E4000FFF718FABB68DB6D1846FFF713FAB868AE
:100E50000421FFF733FEF860FB6823F47D53FB6049
:100E6000BB6893F84330002B03D0FB6843F4005376
:100E7000FB60BB6893F84430002B03D0FB6843F45D
:100E80000043FB60B8680421FA68FFF727FEB868E2
:100E90000021FFF713FEF860FA681A4B1340FB605D
:100EA000B8680021FA68FFF719FEB8680821FFF753
:100EB00005FEF860FB6823F4E06323F00103FB60A8
:100EC000B8680821FA68FFF709FE7868FFF79CFE0A
:100ED000B8680021FFF7F2FDF860FB6843F00D03EE
:100EE000FB60B8680021FA68FFF7F8FDBB680022D4
:100EF0009A87BB68012283F84020002318461037E8
:100F0000BD4680BD03BEFFF380B584B000AF7860FE
:100F10007B681B6BFB60FB68002283F84020F8684D
:100F20000021FFF73DFE78680021FFF71FFFF868FA
:100F30000021FFF7C3FDB860BB6823F00D03BB6061
:100F4000F8680021BA68FFF7C9FDFB689B6D184679
:100F5000FFF706FBFB68DB6D1846FFF701FB103758
:100F6000BD4680BD80B584B000AF78607B681B6BE8
:100F7000FB60FB6893F84C3018460949FA6801F0A9
:100F8000D9FFB860BB68002B05D1FB6893F84C30E3
:100F9000184601F0D5FCBB6818461037BD4680BD29
:100FA000D50F000880B584B000AF78607B681B6BFC
:100FB000FB60FB6893F84C30184601F099FCFB6825
:100FC00093F84C3018460021002201F0B3FF10378F
:100FD000BD4680BD80B588B000AFF860B9607A606A
:100FE0007B687B610123FB760023FB613CE00023EF
:100FF000FB7678691C21FFF761FD03469AB27B6995
:10100000DA877B69DB8F03F02003002B0CD07B6930
:101010009B8F03F02003002B06D07B69184604F059
:101020004BFD0123FB760AE07B69DB8F03F00E03A7
:10103000002B04D0786920210E22FFF74FFD7B6939
:10104000DB8F03F08003002B0BD07B699B8F03F0B9
:101050008003002B05D07B69184604F0D5FC0123E2
:10106000FB76FB690133FB61FB69FF2B02DCFB7E36
:10107000002BBCD1002318462037BD4680BD00BFE1
:1010800080B58AB000AFF860B9607A60FB689B6891
:101090003B623B6A1B69FB61FB691B6BBB61002305
:1010A0007B62BB6840F20112934203D0B3F5817FAB
:1010B00032D072E07B687B617B69002B03D16FF0DB
:1010C00015037B626DE0BB699B6C7869194605F07E
:1010D000F7FBBB6993F84130002B01D0102200E0F0
:1010E0000022BB6993F84130012B01D1202300E09D
:1010F000002313439AB2BB6993F84330002B01D00D
:10110000042300E0002313439BB243F003039BB28C
:101110009AB27B699A8044E07B683B613B69002B13
:1011200003D16FF015037B623BE03B699B8803F0C2
:101130000303032B03D06FF015037B6231E03B699F
:101140009B8803F01003002B0CD03B699B8803F0B5
:101150002003002B01D0012200E00222BB6983F8AA
:10116000412003E0BB69002283F841203B699B8852
:1011700003F00403002B14BF01230023DBB21A4643
:10118000BB6983F84320386905F08EFB0246BB69D2
:101190009A64F869FFF738FD03E06FF018037B628B
:1011A00000BF7B6A18462837BD4680BD80B584B035
:1011B00000AF786039607B681B6BFB60F8682421A6
:1011C000FFF77CFCB860FB68DB8F1B041A46BB682A
:1011D0001A433B681A60FB680022DA87BB68DBB2FF
:1011E00018461037BD4680BD80B586B000AF786028
:1011F0000B46FB707B681B6B3B61EFF3108372B691
:10120000BB81BB89FB813B699B8FFB82FB78002BF9
:1012100004D0FB8A43F02003FB8205E0FB8A23F421
:10122000907323F00103FB82FB8A38691946FFF7AC
:101230009BFCFB897B817B8913F0010F00D162B697
:101240001837BD4680BD00BF80B584B000AF786060
:101250007B681B6BFB60F8681C21FFF72FFC0346C3
:1012600003F02003002B14BF01230023DBB2184638
:101270001037BD4680BD00BF80B584B000AF786038
:1012800039607B681B6BFB603B68F86828211A4655
:10129000FFF724FC1037BD4680BD00BF80B586B087
:1012A00000AF78600B46FB707B681B6B7B61EFF3D4
:1012B000108372B6FB81FB897B82FB78002B0DD0FB
:1012C0007B699B8F43F080033B823B8A7869194698
:1012D000FFF74AFC786804F097FB08E07B699B8F76
:1012E00023F080039BB278691946FFF73DFC7B8AA7
:1012F000BB81BB8913F0010F00D162B61837BD4620
:1013000080BD00BF80B584B000AF78607B681B6B88
:10131000FB60F8681C21FFF7D1FB034603F0800354
:10132000002B14BF01230023DBB218461037BD4643
:1013300080BD00BF80B485B000AF78607B68013BA2
:10134000FB60FB68002B08DBFB68042B05DC0E4A06
:10135000FB6852F82330002B01D100230DE00A4A2C
:10136000FB6852F8233093F84030002B01D1002362
:1013700003E0054AFB6852F8233018461437BD468F
:101380005DF8047B704700BFDCE1020880B582B0E5
:1013900000AF00237B6010E00D4A7B6852F82330D9
:1013A000002B07D00A4A7B6852F8233018460021E8
:1013B000FFF7F6FB7B6801337B607B68042BEBD97E
:1013C000044B1846FFF72EFD0837BD4680BD00BF11
:1013D000DCE102080000002080B586B000AF0023E9
:1013E0003B611E4B1E48194604F094FA1B4B1D48E6
:1013F000194604F08FFA01233B613B4618461A490F
:1014000005F08AF900237B6122E0184A7B6952F8D3
:101410002330002B00D118E0144A7B6952F82330A6
:10142000DB78002B00D010E03B695A1C3A61DBB23C
:101430003033DBB27B720D4A7B6952F823301A4697
:101440003B461846114604F065FA7B6901337B611F
:101450007B69042BD9D91837BD4680BD0000002018
:10146000F0E1020800E202080CE20208DCE10208F6
:1014700080B584B000AF78600E4BFB6007F10A03C3
:10148000F8681946FFF78CFB7B680A2B02D10D2008
:10149000FFF7D4F87B68DBB21846FFF7CFF87B89FB
:1014A000F8681946FFF760FB7B6818461037BD46A1
:1014B00080BD00BF0000002080B582B000AF0120D9
:1014C00000F09AF80346FB710D4B1B683B603B68CC
:1014D00043F001033B600A4A3B68136001E001F0FE
:1014E00061FA074B1B683B603B6803F00203002B6B
:1014F000F5D0FB79184600F07FF80837BD4680BD6F
:101500009010024080B500AF06480021012200F093
:10151000C3FF00BF034B1B6803F00203002BF9D08D
:1015200080BD00BF9410024080B500AF0248012189
:10153000002200F0B1FF80BD9410024080B483B05F
:1015400000AF0346FB71FB7903F1804303F5E043F1
:101550001B689BB218460C37BD465DF8047B70478C
:1015600080B483B000AF03460A46FB711346BB80CC
:10157000FB7903F1804303F5E0431A46BB8813600F
:101580000C37BD465DF8047B704700BF80B485B062
:1015900000AF0346FB71174B1B68FB60FB6803F051
:1015A0008053002B14BF01230023DBB2FB72FB7AB4
:1015B000002B0AD0FB79002B07D1FB6823F0805366
:1015C000FB600C4AFB6813600CE0FB7A002B09D12E
:1015D000FB79002B06D0FB6843F08053FB60054A83
:1015E000FB681360FB7A18461437BD465DF8047B30
:1015F000704700BF5810024080B584B000AF03466A
:10160000FB710020FFF79AFF0346FB81FB8903F47F
:101610008073002B14BF01230023DBB27B737B7B21
:10162000002B0CD0FB79002B09D1FB8923F48073AC
:10163000FB81FB8900201946FFF792FF11E07B7BBD
:10164000002B0ED1FB79002B0BD0FB8943F4807368
:10165000FB81FB8900201946FFF782FF042000F080
:10166000CBFE7B7B18461037BD4680BD80B584B06D
:1016700000AF0346FB710420FFF760FF0346FB81C8
:10168000FB8903F48063002B14BF01230023DBB22A
:101690007B737B7B002B0CD0FB79002B09D1FB8962
:1016A00023F48063FB81FB8904201946FFF758FF70
:1016B0000EE07B7B002B0BD1FB79002B08D0FB8944
:1016C00043F48063FB81FB8904201946FFF748FF40
:1016D0007B7B18461037BD4680BD00BF80B500AF8C
:1016E0000120FFF789FF034BCA221A60014B5322E6
:1016F0001A6080BD2428004080B500AF034BFF2254
:101700001A600020FFF778FF80BD00BF242800404A
:1017100080B584B000AFFFF7E1FF144B1B68BB60DE
:10172000BB6823F02003BB60104ABB6813606FF0F6
:101730007303FB6000237B600DE00C4B1B68BB60F8
:10174000BB6803F02003002B02D00023FB6006E0FF
:101750007B6801337B607B68B3F5003FEDD3FFF717
:10176000CBFFFB6818461037BD4680BD0C280040F3
:1017700080B485B000AF164B1B68BB600023FB60D4
:10178000BB6803F04003002B1AD1114B80221A6072
:101790006FF07303FB6000237B600DE00C4B1B6854
:1017A000BB60BB6803F04003002B02D00023FB604A
:1017B00006E07B6801337B607B68B3F5803FEDD347
:1017C000FB6818461437BD465DF8047B704700BFC0
:1017D0000C28004080B483B000AF074B1B687B60CF
:1017E0007B6823F080037B60034A7B6813600C37BF
:1017F000BD465DF8047B70470C28004080B485B07E
:1018000000AF78600023FB6005E0FB680133FB60FC
:101810007B680A3B7B607B68092BF6DCFB681A015E
:101820007B68134318461437BD465DF8047B704748
:1018300080B485B000AF78607B681A0913469B00BE
:1018400013445B00FB607B6803F00F02FB681344EA
:1018500018461437BD465DF8047B704780B483B0EA
:1018600000AF094B1B687B607B6823F440737B608F
:10187000054A7B681360054B4FF480221A600C37D1
:10188000BD465DF8047B70470C28004014040140FD
:1018900080B58AB000AFF860B9607A6000237B62DF
:1018A0000120FFF7A9FE344B1B683B623B6A03F43F
:1018B0008053002B27D0314B1B68FB61FB6903F47D
:1018C0008073002B1FD02E4BBB61BB691B68002BA4
:1018D0000FD0BB691B687B61BB695B683B61BB69FF
:1018E00000221A60BB6900225A607B6938690021B6
:1018F0009847224B1B68FB61FB6923F48073FB61F3
:101900001E4AFB6913601C4B1B683B623B6A03F475
:101910000053002B27D0194B1B68FB61FB6903F4B4
:101920000073002B1FD0174BBB61BB691B68002BDA
:101930000FD0BB691B687B61BB695B683B61BB699E
:1019400000221A60BB6900225A607B693869012154
:1019500098470A4B1B68FB61FB6923F40073FB612A
:10196000064AFB6913600020FFF746FE7B6A1846B3
:101970002837BD4680BD00BF082800400C28004025
:10198000001F0020081F002080B485B000AF6FF05A
:101990007303FB6000237B600DE00C4B1B68BB6096
:1019A000BB6803F00103002B02D00023FB6006E0BC
:1019B0007B6801337B607B68B3F5803FEDD3FB68C8
:1019C00018461437BD465DF8047B70470C2800406C
:1019D00080B485B000AF6FF07303FB6000237B60C1
:1019E0000DE00C4B1B68BB60BB6803F00203002BCF
:1019F00002D00023FB6006E07B6801337B607B68DC
:101A0000B3F5803FEDD3FB6818461437BD465DF84B
:101A1000047B70470C28004080B584B000AF78602C
:101A20006FF00F03FB60FFF759FE14484FF4885125
:101A3000002200F031FD124B1B6823F48073BB6061
:101A40000F4ABB681360FFF79FFFF860FB68002B2D
:101A500000D00BE00B4A7B6813600B4B00221A602E
:101A6000064800214FF4885200F016FDFFF744FEAF
:101A7000FB6818461037BD4680BD00BF08280040EF
:101A80000C2800401C2800404428004080B584B049
:101A900000AF78606FF00F03FB60FFF71FFE144884
:101AA0004FF40851002200F0F7FC124B1B6823F49E
:101AB0000073BB600F4ABB681360FFF789FFF860D3
:101AC000FB68002B00D00BE00B4A7B6813600B4BCC
:101AD00000221A60064800214FF4085200F0DCFC96
:101AE000FFF70AFEFB6818461037BD4680BD00BFF1
:101AF000082800400C2800402028004048280040CA
:101B000080B582B002AF084B1B78002B0AD10023AE
:101B10000093012000210122044B00F075FF024BCD
:101B200001221A70BD4680BD101F002091180008C8
:101B300080B483B000AF084B1B687B607B6803F008
:101B40001003002B14BF01230023DBB218460C370F
:101B5000BD465DF8047B70470C28004080B584B01A
:101B600000AFFFF7E5FF0346FB73FB7B002B35D18E
:101B70000120FFF741FD21484FF440714FF480727E
:101B800000F08AFC1D4800214FF4004200F084FC64
:101B9000FFF7A4FDFFF7ECFD0346002B07D0FFF78E
:101BA000ABFD0020FFF728FD4FF0FF3322E0144B80
:101BB0001B68BB60BB6823F4E00323F04003BB60F9
:101BC000104B114A1A60FFF7A3FD7860FFF702FE81
:101BD000FFF792FD0020FFF70FFD07E00120FFF760
:101BE0000BFDFFF73BFE0020FFF706FD074B012230
:101BF0001A70002318461037BD4680BD9010024071
:101C00000828004010280040FF007F00111F00201E
:101C100080B400AF00231846BD465DF8047B7047D2
:101C200080B588B000AF786039603D4B1B68FB61C0
:101C30003C4B1B68BB613C4B1B687B61384B1B6892
:101C40003B613A69FB699A42EFD1BB6903F07F03BC
:101C50003B613869FFF7ECFD02467B681A60BB699F
:101C600003F4FE431B0A3B613869FFF7E1FD0246BE
:101C70007B685A60BB6903F47C131B0C3B613869B9
:101C8000FFF7D6FD02467B689A60FB6903F03F03CD
:101C90003B613869FFF7CCFD02467B68DA60FB697F
:101CA00003F4F8531B0A3B613869FFF7C1FD034693
:101CB0005A1E7B681A61FB6903F47F031B0C3B61AE
:101CC0003869FFF7B5FD034603F164027B685A618A
:101CD0003B68002B1ED0154B1B68C3F30E03FB6043
:101CE0007B699BB27B61FA687B69D31A104A02FB5D
:101CF00003F2FB680133B2FBF3F213469B0013447B
:101D00005B00BB60BB684FF47A7202FB03F31A46B8
:101D10003B681A60002318462037BD4680BD00BFCF
:101D200004280040002800402828004010280040D7
:101D3000A086010080B582B000AF7860786800218D
:101D4000FFF76EFF034618460837BD4680BD00BF4B
:101D500090B587B000AF78607B681B681846FFF7C6
:101D60004DFD04467B685B681846FFF747FD034658
:101D70001B021C437B689B681846FFF73FFD034628
:101D80001B0423433B613B6903F07F3323F0FE4395
:101D90003B617B68DB681846FFF730FD04467B68D3
:101DA0001B6901331846FFF729FD03461B021C433C
:101DB0007B685B69643B1846FFF720FD03461B0404
:101DC0002343FB60FB6823F07F4323F0C003FB60E9
:101DD000FFF784FCFFF7CCFC78617B69002B0AD10C
:101DE0000F4A3B6913600F4AFB681360FFF7F2FC70
:101DF000FFF78EFC78610C4B1B680C4A934208D0AD
:101E00000120FFF7F9FB084B084A1A600020FFF792
:101E1000F3FBFFF771FC7B6918461C37BD4690BD8C
:101E2000002800400428004050280040EFFECEFA71
:101E300080B400AF064B1B68064A93420CBF0123D7
:101E40000023DBB21846BD465DF8047B704700BF37
:101E500050280040EFFECEFA80B588B000AF786021
:101E60007A6807F108031046194604F0BDFD07F132
:101E700008031846FFF76CFF034618462037BD4697
:101E800080BD00BF90B587B000AF78606FF01503DC
:101E90007B617B68002B04D130484FF4A56100F0D2
:101EA00095FAFFF72DFE7B685B681846FFF7A6FCE6
:101EB00004467B689B681846FFF7A0FC03461B029C
:101EC0001C437B68DB681846FFF798FC03461B043D
:101ED00023433B617B681B68002B02D0012B1CD085
:101EE00037E01F4BFB607B68DA69FB681A607B6830
:101EF0001A6AFB685A603B6943F000431846FFF7D3
:101F00008BFD78617B69002B06DAFB6800221A6082
:101F1000FB6800225A601CE01BE0124BFB607B68F0
:101F2000DA69FB681A607B681A6AFB685A603B6969
:101F300043F000431846FFF7A9FD78617B69002B49
:101F400006DAFB6800221A60FB6800225A60FFE78D
:101F500000BF7B6918461C37BD4690BD18E20208D9
:101F6000001F0020081F002080B584B000AF03468A
:101F7000FB716FF01503FB60FB79002B02D0012B86
:101F800029D051E0FB792D4A002142F83310FB792A
:101F90002A4ADB00134400225A60FFF79FFB2848BF
:101FA0004FF48851002200F077FAFFF7EDFCF8605B
:101FB000FB68002B00DA39E0224B4FF0FF321A6049
:101FC00021484FF48071002200F066FAFFF794FB7D
:101FD0000023FB6028E0FB79184A002142F8331007
:101FE000FB79164ADB00134400225A60FFF776FBA8
:101FF00013484FF40851002200F04EFAFFF7E8FCB6
:10200000F860FB68002B00DA10E0104B4FF0FF3255
:102010001A600D484FF40071002200F03DFAFFF7FE
:102020006BFB0023FB6000BFFB6802E0FFF764FB73
:10203000FB6818461037BD4680BD00BF001F00205A
:10204000082800401C2800400C28004020280040A0
:1020500080B483B000AF6B467B607B6818460C375A
:10206000BD465DF8047B7047F0B58DB008AF786071
:1020700039607B6823F01F03FB602BE0FB68BB60CB
:10208000BB68D3F800E0BB6804331E68BB68083344
:102090001D68BB680C331C68BB6810331868BB68CC
:1020A00014331968BB6818331A68BB681C331B6883
:1020B000CDF800E0019602950394049005910692F4
:1020C000079300200749084AFB6804F0B5FBFB684A
:1020D0002033FB60FA683B689A42CFD31437BD4681
:1020E000F0BD00BF2CE20208D0E3020890B585B035
:1020F00002AF786039607B689B891CB2786800F019
:102100002BFA02467B689B6A0092019300200449E7
:10211000044A234604F090FB0C37BD4690BD00BF37
:1021200060E20208E0E3020880B500AF0248002147
:1021300000F0B6FF80BD00BFED200008F0B58BB009
:1021400008AF3F4B1B68002B77D03D4B1B682C33EF
:10215000D3F800E03A4B1B6830331E68384B1B68DD
:1021600034331D68364B1B6838331C68344B1B688E
:1021700008331868324B1B680C331968304B1B68E6
:1021800010331A682E4B1B6814331B680096019598
:1021900002940390049105920693002029492A4A4B
:1021A000734604F049FB264B1B681833D3F800E054
:1021B000234B1B681C331E68214B1B6820331D6892
:1021C0001F4B1B6824331C681D4B1B683C3318686D
:1021D0001B4B1B6819681A4B1B6840331A68184B55
:1021E0001B6844331B680096019502940390049188
:1021F0000592069300201549134A734604F01CFB10
:102200000F4B1B6848331C680D4B1B6804331A685E
:10221000EFF314837B607B680092019300200C49EC
:10222000094A234604F008FB054B1B6828331B684A
:1022300000200849044A04F0FFFA0C37BD46F0BDFF
:102240002434002084E20208FCE30208B8E2020819
:10225000ECE2020818E3020880B586B000AF434BF9
:102260001B68BB60FFF7F4FE7861BB689B89002B9D
:1022700007D13F4B1B68043B3B614FF48063FB601D
:1022800005E0BB681B6B3B61BB689B6AFB60394B1D
:102290007B604FF400633B6000203749374A7B691D
:1022A00004F0CAFA00203649344A04F0C5FA002086
:1022B0003449324A7B6804F0BFFA002032492F4A81
:1022C0003B6804F0B9FA00F081F9034600202F4979
:1022D0002A4A04F0B1FA7A697B689A4209D87A6886
:1022E0003B68D21A7B699A4203D278697968FFF712
:1022F000BBFE274B1B68002B09D0254B1B681B68B6
:102300007B6100201C491D4A7B6904F095FA00207E
:1023100020491A4A04F090FA00201A49174A3B69EA
:1023200004F08AFA00201849144AFB6804F084FA81
:10233000B86800F011F90346002014490F4A04F070
:102340007BFA7A693B699A4209D83A69FB68D21AE2
:102350007B699A4203D278693969FFF785FEFFF7F6
:10236000EDFEFFF7E1FE1837BD4680BD3834002092
:1023700088E102080028002030E30208ECE30208AC
:1023800044E3020854E3020868E302087CE302081D
:102390002434002090E3020880B584B000AF786058
:1023A000084B1B68002B04D1074B1B689B89002B33
:1023B00004D1EFF3108372B6FB81FEE7786801F079
:1023C00003F900BF243400203834002080B584B0E5
:1023D00002AF786039603B68009300200449054AE9
:1023E0007B6804F029FAFFF737FF0120FFF7D4FFDD
:1023F000A4E302080CE4020880B485B000AF786062
:102400000EE00023FB6002E0FB680133FB60FB6829
:1024100042F232129342F7DD7B68A3F57A737B6058
:102420007B68B3F57A7FECD80DE00023FB6002E017
:10243000FB680133FB60FB6840F251329342F7DDE9
:102440007B68643B7B607B68642BEED80BE00023E9
:10245000FB6002E0FB680133FB60FB68542BF9DD95
:102460007B680A3B7B607B680A2BF0D80BE000237B
:10247000FB6002E0FB680133FB60FB68072BF9DDC2
:102480007B68013B7B607B68002BF0D11437BD4635
:102490005DF8047B704700BF80B489B000AFF8607E
:1024A000B9607A60EFF3108372B6FB82FB8AFB831C
:1024B000FB681B68BB61BB68DB43BA691340BB6147
:1024C000BA697B681343BB61FB68BA691A60FB8B0E
:1024D000BB82BB8A13F0010F00D162B62437BD4620
:1024E0005DF8047B704700BF80B487B000AF7860B0
:1024F00039603B68002B01D1002324E07B6823F086
:102500000303FB607A683B681344033323F003033F
:10251000BB60BA68FB68D31A3B60FB687B613B68B1
:102520009B083B6105E07B6904337B613B69013BB0
:102530003B617B691B68074A934202D13B69002BD0
:10254000F1D13B699B0018461C37BD465DF8047B02
:10255000704700BFEFBEADDE80B582B000AF7860DF
:102560007B68DB6A1A467B689B6A10461946FFF750
:10257000BBFF034618460837BD4680BD90B583B003
:1025800000AF78607B689B6A1C467868FFF7E4FFC1
:102590000346E31A18460C37BD4690BD80B500AF20
:1025A000034B1B681846FFF7D7FF0346184680BD4C
:1025B0003834002080B500AF034B1B681846FFF786
:1025C000DDFF0346184680BD3834002080B500AFDB
:1025D000044B18464FF40061FFF786FF0346184688
:1025E00080BD00BF0020002080B500AFFFF7EEFFE8
:1025F0000346C3F50063184680BD00BFEFF30580B6
:102600001EF0040F02D0EFF309818D466A4602F1F5
:102610002002EFF310832DE9FC4F72B669466C4639
:10262000DFF838D000F098FA2146884209D000F14E
:102630002C01B1E8F00F016821E9F00FB0E8FC4F80
:1026400001E0B1E8FC4F1EF0040F0CBF81F30888D5
:1026500081F3098883F31088704700000028002068
:1026600080B586B000AFF860B9607A60EFF3108390
:1026700072B6FB820148A221FFF7A8FE18E4020807
:1026800080B586B000AFF860B9607A60EFF3108370
:1026900072B6FB820148AA21FFF798FE18E40208EF
:1026A00080B586B000AFF860B9607A60EFF3108350
:1026B00072B6FB820148B221FFF788FE18E40208D7
:1026C00080B586B000AFF860B9607A60EFF3108330
:1026D00072B6FB820148BA21FFF778FE18E40208BF
:1026E00080B586B000AFF860B9607A60EFF3108310
:1026F00072B6FB820148C221FFF768FE18E40208A7
:1027000080B586B000AFF860B9607A60EFF31083EF
:1027100072B6FB820148CA21FFF758FE18E402088E
:1027200080B487B000AFF860B9607A603B60FB6846
:102730000F2B15DDFB68103B7B617B695B11403320
:102740009B001A463B68134403F1E022BB681A6001
:102750007B6903F01F0301229A407B681A6027E01F
:10276000BB68174A1A60FB68042B04D17B684FF4DE
:1027700080321A601CE0FB68052B04D17B684FF4A3
:1027800000321A6014E0FB68062B04D17B684FF41A
:1027900080221A600CE0FB680F2B06D1BB68094A47
:1027A0001A607B6801221A6002E04FF0FF3300E0FC
:1027B000002318461C37BD465DF8047B704700BFF8
:1027C00024ED00E010E000E080B584B000AF00230D
:1027D0007B600CE07B685B1160339B0003F1E023BE
:1027E0001A464FF0FF3313607B6820337B607B68B1
:1027F000512BEFDD2D4B2E4A1A602E4B4FF08032BD
:102800001A602D4B4FF080321A602C4B4FF0803203
:102810001A602B4B1B680133DB00BB60294BFB604C
:1028200006E0FB684FF080321A60FB680433FB60FF
:10283000BB685A1EBA60002BF3D1234B00221A60EA
:102840000B202249002200F075FB032020490022C2
:1028500000F070FB02201F49002200F06BFB0420F7
:102860001D49002200F066FB05201C49002200F0F3
:1028700061FB06201A49002200F05CFB0E2019497A
:10288000002200F057FB0C201749002200F052FBF9
:1028900000201649002200F04DFB00233B603B68FE
:1028A00083F3118862B61037BD4680BD08ED00E0A5
:1028B0000000000818ED00E01CED00E020ED00E055
:1028C00004E000E000E400E0243400201D2C0008B7
:1028D000992B000861260008052B000881260008B6
:1028E000A1260008C1260008E126000801270008EB
:1028F00080B586B000AF786007F1100207F10C03D5
:10290000786811461A468023FFF70AFF0346002B1A
:1029100013D17B680F2B04DD3B691A46FB681360FB
:102920000BE03B691B687B61FB68DB437A69134002
:102930007B613B691A467B6913601837BD4680BDD1
:1029400080B586B000AF786007F1100207F10C0384
:10295000786811461A460023FFF7E2FE0346002B73
:1029600012D17B680F2B04DD3B691A46FB681360AC
:102970000AE03B691B687B61FB687A6913437B61F2
:102980003B691A467B6913601837BD4680BD00BF9E
:1029900080B483B000AF78600C37BD465DF8047B2F
:1029A000704700BF80B400AF044B1B680133034A7B
:1029B0001360BD465DF8047B704700BF002800200F
:1029C00080B586B000AFF860B9607A6000237B61A3
:1029D0000A4B1B68002B07D0084B1B68084A12687B
:1029E000F868B96898477861064B4FF480221A60FE
:1029F0007B6918461837BD4680BD00BF04280020FB
:102A0000082800201404014080B582B000AF3B606C
:102A10000346FB710B46BB7113467B71324A3B6820
:102A20001360324A3B6913603B68002B08D03920A1
:102A30002F49002200F07EFA3920FFF781FF02E0E3
:102A40003920FFF755FFFB79002B01D0002201E070
:102A50004FF48022FB79002B02D04FF4802300E05A
:102A60000023244811461A46FFF716FDBB79002BB8
:102A700001D0002201E04FF48022BB79002B02D06C
:102A80004FF4802300E000231B4811461A46FFF74D
:102A900003FD7B79002B01D0002201E04FF480225E
:102AA0007B79002B02D04FF4802300E000231348F1
:102AB00011461A46FFF7F0FC3B68002B01D00022BC
:102AC00001E04FF480223B68002B02D04FF48023BA
:102AD00000E000230A4811461A46FFF7DDFC0023F8
:102AE00018460837BD4680BD04280020082800206D
:102AF000C1290008080401400C04014004040140FD
:102B00000004014090B589B002AFF860B9607A6006
:102B1000EFF3108372B6FB8200200949094A03F0E3
:102B20008BFE094B1C68094B1B6800930020084969
:102B3000044A234603F080FE06487621FFF746FC50
:102B40002CE4020890E4020828ED00E034ED00E0F7
:102B500054E4020878E4020880B584B000AF7860DD
:102B600039600C4B1B68FB600A4A3B68136078684D
:102B7000FFF70EFF7868396800F018FA054B1B68FC
:102B80003B60044AFB6813603B6818461037BD463B
:102B900080BD00BF2434002080B588B000AFF8604D
:102BA000B9607A60BB68FB61FB6944331B68023B18
:102BB000BB61BB69134A934211D3BB69124A93426A
:102BC0000DD2BB691B88FB82FB8AB3F55F4F06D130
:102BD000F868B9687A6800F021F803460EE0EFF370
:102BE000108372B6BB82094B1B6800200849094A52
:102BF00003F022FE0848AB21FFF7E8FB1846203718
:102C0000BD4680BD000000080C1E03082CED00E04E
:102C10009CE40208D4E40208BCE4020880B586B053
:102C200000AFF860B9607A60BB687B617B69DB6A82
:102C30003B613B69012B0DD0012B02D3022B10D03D
:102C40001EE07B6930331B68184679694C2203F01B
:102C5000B3FD15E07B6930331B681A460B4B1A60D5
:102C60000EE07B6930331B68184679694C2203F00B
:102C7000A3FD7B6934331B681A46044B1A6000BFFE
:102C8000002318461837BD4680BD00BF24340020FD
:102C900080B400AFBD465DF8047B704780B586B058
:102CA00000AF784B01221A70774B00221A60764BE6
:102CB00000225A60754B00221A60744B00225A6041
:102CC000734B00221A60724B00225A60714B002233
:102CD0001A60704B00225A606F4B00221A606E4BD4
:102CE00000225A606D4B00221A606C4B00225A6021
:102CF0006B4B00221A606A4B00225A60694B00221B
:102D00001A60684B00225A60674B00221A80002329
:102D10007B610EE0654A7B69002142F83310634A0B
:102D20007B69DB0013444FF6FF729A807B690133A5
:102D30007B617B690F2BEDDD5B4B1B889BB29BB2EC
:102D400003F00F033B61594A3B69594942F833107C
:102D5000554B1B8899B2554A3B69DB0013440A4620
:102D60009A8053480021C02203F0BAFC4E4B1B88C6
:102D70009AB24F4B9A814E4B03229A764C4B4D4A56
:102D80001A614B4B4B4A5A61494B06229A834A4B74
:102D90004A4A1A60484B00225A60454B464AC3F8DB
:102DA000BC20394BFB604248F96803F0EFFA404819
:102DB00004F020FB334B02221A7007F108023B1D7E
:102DC0001046194604F01AFABA687B68104619468C
:102DD00003F00CFF2B4B03221A70394B002B01D050
:102DE00000F0EAFC374B002B01D001F087FF364B97
:102DF000002B01D01DF06CF9344B002B01D0AFF348
:102E00000080334B002B01D001F060FC314B002BD4
:102E100001D01FF005FC304B002B01D01DF030FF1E
:102E200012F034FB04F0C6FA164B04221A70204B41
:102E30009B8BDBB21E48194600F0F8FB1C4800F0E3
:102E400043FC1B4800F02EFC194B9B6801221A70B2
:102E5000022002F08DFE0B4B05221A7000F062F882
:102E600000F012F90346002B08D003F0CFFE034612
:102E7000002B03D100F002F903F0D2FE04F0EEF9CA
:102E8000EEE700BF4034002038340020DC3400205E
:102E900030340020543400204434002028340020F2
:102EA0004C340020E8340020E43400205C3400205E
:102EB0000C2800209D2C0008CC2800202CE50208BE
:102EC000B9370008FD4C0008D100020800000000DE
:102ED000CD46000821260208810C020880B584B086
:102EE00002AF00230093094864214FF40062084BAD
:102EF00000F088F978607B68002B04DC054840F21C
:102F00000D11FFF763FA0837BD4680BD38E50208AA
:102F1000917A000840E5020880B500AFFFF7DEFFB8
:102F200080BD00BF80B500AFFFF7F6FF0023184655
:102F300080BD00BF80B588B000AFF860B9607A602E
:102F40004FF0FF33FB61FB68612B25D8FB68BB6149
:102F5000EFF3108372B6BB82BB8AFB82BB68002B87
:102F600006D1F868FFF7C4FC0E4BBB6000237B6002
:102F70000D49BB69BA6841F833200B4ABB69DB00D5
:102F800013447A685A60FB8A7B827B8A13F0010FB4
:102F900000D162B60023FB61FB6918462037BD46AD
:102FA00080BD00BFF52F0008F034002080B584B04C
:102FB00000AF786039607B68612B04D90B4BFB60F4
:102FC0000023BB600AE00A4A7B6852F83330FB609A
:102FD000074A7B68DB0013445B68BB60FB6878686A
:102FE0003968BA6898471037BD4680BDF52F00088C
:102FF000F034002080B586B000AFF860B9607A6028
:10300000EFF3108372B6FB8201484121FFF7DEF92E
:1030100054E5020880B584B000AF16E0EFF31083EA
:1030200072B6FB80FB88FB810B4803F065F9B86042
:10303000FB89BB80BB8813F0010F00D162B6BB686F
:10304000002B02D0B86803F0F3FD034B1B68002B84
:10305000E4D11037BD4680BDE834002080B400AF15
:10306000054B1B68002B14BF01230023DBB218465D
:10307000BD465DF8047B7047E834002080B500AFA2
:10308000FFF7C8FF80BD00BF80B500AFFFF7E6FFC8
:103090000346002B14BF01230023DBB2184680BD7A
:1030A00080B586B000AF78603960EFF3108372B6F8
:1030B0003B823B8A7B8200237B6110E00E4A7B6966
:1030C00052F83330002B07D00B4A7B6952F833207B
:1030D0007B681046396898477B6901337B617B695F
:1030E0000F2BEBDD7B8AFB81FB8913F0010F00D1F5
:1030F00062B61837BD4680BD5C34002080B58AB00A
:1031000002AFF8607A603B600B46FB72C02003F0B0
:10311000ADFDB861BB69002B02D10C23FB6162E0FD
:10312000FB7AB869194600F081FA78617B69002B57
:1031300003DA7B695B42FB6150E0B86900F024FB75
:1031400078617B69002B03DA7B695B42FB6145E0B8
:103150003A68FB7AB86911461A4604F085F8786136
:103160007B69002B03DA7B695B42FB6136E0FB7A0B
:103170000093B8697968214ABB6A00F0A9F97861BF
:103180007B69002B03DA7B695B42FB6126E0B8694F
:10319000F968FA6A00F0C4F9B86900F083FA786156
:1031A0007B69002B03DA7B695B42FB6116E0BB693C
:1031B0009B897B82B86900F0C3F978617B69002B39
:1031C00009DA00F015FA03461B68FB61B8690C497F
:1031D00003F000F902E0B7F912300BE0FB7AB869AE
:1031E000194600F025FB00F003FA0246FB69136064
:1031F0004FF0FF3318462037BD4680BD75350008B7
:103200004C34002080B586B002AFF860B9607A60B7
:103210003B603B680093BB690193F8680021BA6882
:103220007B68FFF76BFF034618461037BD4680BD2D
:1032300080B586B002AFF860B9607A603B603B68E9
:103240000093BB690193F8680221BA687B68FFF7B5
:1032500055FF034618461037BD4680BD80B586B081
:1032600000AF786000F018FB00233B6133E01F4B98
:103270001B889BB29BB201339BB29BB29BB21B4A91
:1032800019461180FB82B7F91630002B04DC174B6E
:1032900001221A800123FB82FB8A03F00F03FB60EB
:1032A000134AFB6852F83330002B11D11049FB68E8
:1032B0007A6841F833200E4AFB68DB001344FA8A2F
:1032C0009A807B68FA8A9A8100F004FB002309E067
:1032D0003B6901333B613B690F2BC8DD00F0FAFA13
:1032E0004FF0FF3318461837BD4680BDE434002048
:1032F0005C34002080B586B000AFF860B9607A60B9
:103300003B60F868FFF7AAFF78617B69002B3BD12F
:10331000BB68DAB2FB681A76BB68DAB2FB685A7629
:10332000FB687A681A613A68FB685A6197F820303E
:1033300003F0030387F82030FB689B8B23F0030323
:103340009AB2FB689A83FB689A8B97F820309BB2FD
:1033500013439AB2FB689A83FB6838330320002139
:103360001A4600F00DFBFB6800229A76F86804F01C
:1033700041F800F091FAF868064903F007F8FB6895
:1033800004229A7600F0A6FA7B6918461837BD46E3
:1033900080BD00BF4C34002080B58AB000AF78609B
:1033A00039604A4B7B61786903F0EEF903460133DB
:1033B0003B620023FB613B68002B26D01EE0FB69CB
:1033C0009B003A6813441B68184603F0DDF9034676
:1033D00001333A6A13443B627B689A6A3B6A9A42B9
:1033E00002D86FF05A036DE0FB690133FB61FB69A2
:1033F000B3F5807F02DD6FF0060363E0FB699B009D
:103400003A6813441B68002BD9D1FB6902339B0037
:103410003B6179683A693B6A13440846194604F0EF
:1034200027F9F860FB68002B02D16FF00B0349E02D
:10343000FA683B6913447B62FB687A6A1A607869B0
:1034400003F0A2F903460133BB60786A796903F09F
:1034500063F9BB687A6A13447B620023BB6121E095
:10346000BB6901339B00FA6813447A6A1A60BB692E
:103470009B003A6813441B68184603F085F903461D
:103480000133BB60BB699B003A6813441B68786AD0
:10349000194603F041F9BB687A6A13447B62BB6941
:1034A0000133BB61BA69FB699A42D9DBFB6901331D
:1034B0009B00FA68134400221A607B68FA68C3F81C
:1034C000BC20002318462837BD4680BD6CE50208A5
:1034D00080B586B002AFF860B9607A603B603B7E31
:1034E0000093F868B9687A683B68FFF703FF034602
:1034F00018461037BD4680BD80B586B002AFF86073
:10350000B9607A603B6001230093F868B9687A6813
:103510003B68FFF7EFFE034618461037BD4680BDF7
:1035200080B584B000AFF860B9607A60F8687968F7
:10353000FFF732FF034618461037BD4680BD00BF77
:1035400080B584B000AF7860EFF3108372B6BB81B2
:10355000BB89FB81786804F0BDF8FB897B817B899E
:1035600013F0010F00D162B6002318461037BD4694
:1035700080BD00BF80B584B000AF124B1B68BB603C
:103580000123FB6009E0FB680133FB60FB68B3F5D6
:10359000807F02DD012000F017F8BB68D3F8BC2063
:1035A000FB689B0013441B68002BECD1BB685B6974
:1035B000BA68D2F8BC20F8681146984778607868F5
:1035C00000F002F83834002080B584B000AF786095
:1035D000064B1B68FB607B68DBB27B60F868796830
:1035E000002200F051FD786803F0B2FE383400206C
:1035F00080B582B000AF03F01FFF0346002B0CD153
:10360000084B1B687B607B68002B06D07B689B7E29
:10361000032B02D17B685C3300E0034B184608376C
:10362000BD4680BD38340020D428002080B584B049
:1036300000AF78600B46FB704FF4617003F016FB2F
:10364000F860FB68002B02D16FF00B0326E07B686B
:10365000FA689A60F86800F079FDB860BB68002BE2
:1036600007DAF86803F0E4FA7B6800229A60BB6826
:1036700014E0FB680C3318460021012202F0D4FE4E
:10368000FB68043318460021002202F0CDFEFB68DF
:1036900004331846002102F0E5FE002318461037D7
:1036A000BD4680BD80B485B000AF78607B689B6804
:1036B000FB60FB6801225A70002318461437BD4690
:1036C0005DF8047B704700BF80B584B000AF7860C0
:1036D0007B689B68FB60FB683433184611F02AFF57
:1036E0001048032112F010FBB860BB68002B0CD10E
:1036F0000020012112F0C6F90020022112F0C2F9C7
:10370000786800F0A7FD034607E0BB68002B02DDE8
:10371000B86812F095F96FF0160318461037BD46D9
:1037200080BD00BF78E5020880B586B000AF786044
:10373000144B1B683B613B699B683833FB607B68BB
:103740009B683833BB6000237B6115E07B691B01FC
:10375000FA6813449B68002B0BD07B691B01FA6845
:10376000D1187B691B01BA6813440846194611F049
:103770000BFF7B6901337B617B690F2BE6DD18371B
:10378000BD4680BD3834002080B584B000AF78607D
:103790007B689B68FB60FB683433184611F0CAFEF7
:1037A0007868FFF7C1FF786800F054FD03461846BB
:1037B0001037BD4680BD00BF80B483B000AF00238A
:1037C0007B600DE00A4A7B680A4942F83310084AD8
:1037D0007B68DB00134400225A607B6801337B6006
:1037E0007B68612BEEDD0C37BD465DF8047B7047CE
:1037F000F0340020F52F000880B485B000AF0346F8
:10380000FB80FB8803F00F03FB60084AFB68002184
:1038100042F83310054AFB68DB0013444FF6FF7291
:103820009A801437BD465DF8047B70475C340020F5
:1038300080B584B000AF78600B46FB700023FB605E
:103840007B68002B21D0134B002B05D07B689B8914
:103850001BB21846AFF300807B689B89002B05D014
:103860007B689B891BB21846FFF7C6FF7B68DB6A43
:10387000002B04D0FB787868194603F027FE78689F
:1038800000F0CAFC786800F0A1FDFB68184610370C
:10389000BD4680BD0000000080B582B000AF0C4B7B
:1038A0001B687B607B68002B0DD003F0C5FD0346D1
:1038B000002B08D17B68DB8B9BB29BB201339BB2A0
:1038C0009AB27B68DA83002318460837BD4680BD6C
:1038D0003834002080B584B000AF274B1B68FB60F4
:1038E000254B1B68FB60FB68002B3FD003F0A4FD59
:1038F0000346002B3AD1EFF3108372B63B813B892C
:103900007B81FB68DB8B1BB2002B08DDFB68DB8B4C
:103910009BB29BB2013B9BB29AB2FB68DA83FB6815
:10392000DB8B1BB2002B1ADCFB680022DA83134B03
:103930001B68002B01D003F08FFDFB689B8B03F00D
:103940006003202B0BD1FB681B6A002B07D10A4BAD
:103950001A68FB689A4202D0FB6814221A627B89BB
:10396000FB80FB8813F0010F00D162B600231846DC
:103970001037BD4680BD00BF38340020DC34002045
:1039800080B58AB000AFF860B9607A60244B1B68DC
:103990003B6200237B62FFF77FFF3B6A9B6BFB610F
:1039A0007B68002B02D07B68FA691A60BB68002B29
:1039B0002FD0EFF3108372B63B833B8B7B83FB6886
:1039C000022B0BD0032B12D0012B15D13B6A9A6B23
:1039D000BB681B681A433B6A9A6311E03B6A9A6BA7
:1039E000BB681B68DB431A403B6A9A6308E0BB680C
:1039F0001A683B6A9A6303E04FF0FF337B6200BFB3
:103A00007B8BFB82FB8A13F0010F00D162B600F0C2
:103A100009F8FFF75FFF7B6A18462837BD4680BD6F
:103A20003834002090B585B000AF1B4B1B68FB609D
:103A3000FFF732FFFB689B6BDC43F86800F0DEFEAB
:103A4000034623403B601EE03B46184600F0A4F8C6
:103A5000B860BB68B3F1FF3F15D03B461846B96864
:103A600002F03EFDF868B96800F018F878607B68ED
:103A7000002B08D07B680433F868194600F09EF9E3
:103A8000786800F04BF83B68002BDDD1FFF722FF90
:103A90001437BD4690BD00BF3834002080B588B0D3
:103AA00000AF786039607B689B687B61EFF31083BF
:103AB00072B63B823B8A7B820023BB617B695B6A77
:103AC000FB6104E0FB69BB61FB691B68FB61FB698F
:103AD000002B05D0FB691B791A463B689A42F1D14D
:103AE000FB69002B0ED0BB69002B06D07B69243309
:103AF000B869194602F020FC04E07B6924331846BB
:103B000002F0FAFB7B8AFB81FB8913F0010F00D1E5
:103B100062B6FB6918462037BD4680BD80B586B0C9
:103B200000AF78607B681B7B002B11D1EFF3108313
:103B300072B6BB82BB8AFB827868154902F084FBAF
:103B4000FB8A7B827B8A13F0010F00D162B61CE0F6
:103B50007B681B7B022B11D1EFF3108372B63B8283
:103B60003B8AFB8278680B4902F06EFBFB8AFB8183
:103B7000FB8913F0010F00D162B606E07B681B7B66
:103B8000012B02D1786800F021FC1837BD4680BDBA
:103B9000203800201838002080B584B000AF78604D
:103BA0000023FB600BE07868F96802F0B9FC03467B
:103BB000002B01D0FB6807E0FB680133FB60FB686A
:103BC0001F2BF0DD4FF0FF3318461037BD4680BD88
:103BD00080B588B000AF786039600023FB61FFF7E3
:103BE0005BFE7B689A683B681B781046194600F0BC
:103BF00033FEB861BB69002B2FD0BB695B68002B1B
:103C00002BD000F04DFE78617B69002B03D16FF063
:103C10000B03FB6121E0BB695A687B695A60BB6991
:103C20009A687B699A607B690C3318463968082268
:103C300002F0C2FDEFF3108372B63B823B8A7B82B7
:103C40007B6840337869194602F0FEFA7B8AFB8173
:103C5000FB8913F0010F00D162B6FFF73BFEFB6951
:103C600018462037BD4680BD80B584B000AF03F054
:103C7000E3FB0346002B0BD0184802F03DFBF86035
:103C8000FB68002B25D1164802F036FBF86020E0D7
:103C9000EFF3108372B63B813B897B810F4802F0C2
:103CA0002BFBF8607B89FB80FB8813F0010F00D1B0
:103CB00062B6FB68002B0CD1FB68002B03D11020EF
:103CC00002F0C4FFF860FB68002B02D0FB68012201
:103CD0001A73FB6818461037BD4680BD2038002097
:103CE0001838002080B487B000AF786039600023B6
:103CF0007B61EFF3108372B63B823B8A7B827B68E9
:103D00005B6A7B6102E07B691B687B617B69002BDE
:103D100005D07B691B791A463B689A42F3D17B8AAE
:103D2000FB81FB8913F0010F00D162B67B69184655
:103D30001C37BD465DF8047B704700BF80B586B078
:103D400000AF786039607B689B683B613B681B789B
:103D500038691946FFF7C6FF78617B69002B07D0E9
:103D60007B69043318463968082202F025FD1FE0FC
:103D7000FFF77AFF78617B69002B19D07B690433E8
:103D800018463968082202F017FDEFF3108372B667
:103D9000BB81BB89FB813B6924337869194602F0FA
:103DA00053FAFB897B817B8913F0010F00D162B646
:103DB0007B6918461837BD4680BD00BF80B586B008
:103DC00000AF7860396000237B617B6803F13802C3
:103DD0003B681B781046194602F0A2FB0346002BF5
:103DE0003ED0EFF3108372B63B823B8A7B827B68C6
:103DF0009B7E062B21D17B6803F13C023B681B783C
:103E00001046194602F08CFB0346002B15D07B6848
:103E1000503318463968082202F0CEFC7B68002235
:103E2000DA63786803F056FC7B8AFB81FB8913F028
:103E3000010F00D162B600BF4DE07B8ABB81BB8918
:103E400013F0010F00D162B678683968FFF776FF8A
:103E50000346002B3FD122484FF4AA71FEF7B6FA71
:103E600078683968FFF7B4FE7861EFF3108372B6B3
:103E70007B817B897B8278681A4903F03FFB7B68F2
:103E80009B7E062B0CD17B6850331846396808227C
:103E900002F092FC7B680022DA63786803F01AFC77
:103EA0007B8A3B813B8913F0010F00D162B67B68AE
:103EB0009B7E052B03D17868042100F07FFB7B6893
:103EC0009B7E072B03D07B689B7E082B03D17868F1
:103ED000042100F015FA7B6918461837BD4680BDED
:103EE00088E50208213F000880B584B000AF034692
:103EF0003960FB80B7F90630184600F091FAF86097
:103F0000FB68002B02D16FF0020304E0F868396807
:103F1000FFF754FF034618461037BD4680BD00BF6B
:103F200080B58AB000AF7860FFF7B6FC7B68DB6DC8
:103F30003B627B681B6C7B6252E07B6A1B68FB61A7
:103F4000EFF3108372B67B827B8A7B837B6840337E
:103F5000786A194602F098F97B684833786A1946FE
:103F600002F072F97B8B3B823B8A13F0010F00D188
:103F700062B67B689B6B7B617B6A9A687B691A433C
:103F80007B6A1B7B194601238B401A437B689A632B
:103F90007B6A5B687A6A127B11467A6A0C32084641
:103FA0001146002298477B687A699A63FFF73AFDC9
:103FB000EFF3108372B6FB81FB897B837B68483308
:103FC000786A194602F060F97B8BBB81BB8913F0DC
:103FD000010F00D162B6786A00F0A0FCFB697B6239
:103FE0007B6A002BA9D17B683A6ADA65FFF772FC1D
:103FF0002837BD4680BD00BF80B584B000AF786073
:1040000039607B689B68FB60FB68002B21D07B6874
:104010009B8B03F00303012B08D0FB689B68002BEC
:1040200004D0FB689B683A6812021A60FB685B78F0
:10403000012B0ED1FB6800229A6004E0FB68043378
:10404000184600F033FAFB689B889BB21BB2002B2A
:10405000F4DB1037BD4680BD80B584B000AF78601A
:104060007B689B68FB60FB68002B0AD0FB685B7871
:10407000012B06D17B689B6803F59C73184602F000
:104080006FFA1037BD4680BD80B584B000AFF860D0
:10409000B9601346FB71FB689B8B03F48073002BA4
:1040A00000D019E0F86800F01BF8F868B968FFF76D
:1040B000A3FFFB79002B02D1F868FFF7CDFFF8686A
:1040C00000F0AAF8F86800F067FCFB689B8B43F4EB
:1040D00080739AB2FB689A831037BD4680BD00BFDB
:1040E00080B582B000AF7860786800F009F8786831
:1040F00000F03AFA786800F0DFF80837BD4680BD76
:1041000080B584B000AF7860EFF3108372B6BB81E6
:10411000BB89FB817B685B6A002B0CD07B685B6A88
:10412000184600F083FC7B685B6A184600F0E2FCEE
:104130007B6800225A62FB897B817B8913F0010F27
:1041400000D162B61037BD4680BD00BF80B586B0D5
:1041500000AF78601A4B1B683B610023FB600023B3
:104160007B61FFF799FB3B699B68002B21D03B6982
:104170009B681B6B002B1CD03B699B68DB6ABB6098
:10418000B86802F063FDF860FB68002B03D16FF0A4
:104190000B037B610DE07B68BA68DA627B68FA68C2
:1041A0001A633B699B681B6BF8681946BA6802F092
:1041B00003FBFFF78FFB7B6918461837BD4680BDB0
:1041C0003834002080B582B000AF7860786800F0A5
:1041D0000BFC786800F0D4F87B683433184611F093
:1041E000B7F9786801F07AFF786800F0C7FC786862
:1041F00000F04EF87B689B78002B07D07B681B781B
:1042000043F00803DAB27B681A7002E0786800F0C5
:10421000DDF80837BD4680BD80B584B000AF78605A
:104220007B689B68FB60FB68002B10D0FB685B78A9
:10423000012B06D9FB685B78013BDAB2FB685A7048
:1042400002E0F868FFF7BEFF7B6800229A60103733
:10425000BD4680BD80B582B000AF78607B689B684A
:10426000184601F003FF002001217A6812F0A2FC39
:10427000012006217A6812F09DFC022006217A684E
:1042800012F098FC002318460837BD4680BD00BFD9
:1042900080B582B000AF786006E07B68D3F87C33ED
:1042A0001846796813F006F87B68D3F87C33002B46
:1042B000F3D10837BD4680BD80B483B000AF7860CD
:1042C0007B689B7E072B09D17B689A6D538A9BB2D2
:1042D0009BB2013B9BB29BB253820CE07B689B7EFE
:1042E000082B08D17B689A6D138A9BB29BB2013B65
:1042F0009BB29BB213820C37BD465DF8047B7047BE
:1043000080B586B000AF78603960EFF3108372B685
:10431000FB81FB89FB827B689B7E072B03D07B683C
:104320009B7E082B22D17B689B6D3B617B680022C2
:104330009A657B689B7E072B09D13B695B8A9BB2A0
:104340009BB2013B9BB29AB23B695A8208E03B693F
:104350001B8A9BB29BB2013B9BB29AB23B691A8209
:104360007B683A68DA65786803F0B4F9FB8ABB8148
:10437000BB8913F0010F00D162B61837BD4680BD6E
:1043800080B584B000AF786013E07B681B69FB6088
:10439000FB681A687B681A61FB680C33184600F0EA
:1043A00067F8FB680A33184600F062F8F86800F016
:1043B0000DF87B681B69002BE7D17B680C3318462E
:1043C00000F056F81037BD4680BD00BF80B584B000
:1043D00000AF786003F030F80346002B04D102F000
:1043E00015FC0346002B11D0EFF3108372B6BB818E
:1043F000BB89FB817868094901F026FFFB897B8135
:104400007B8913F0010F00D162B604E0786802F0F6
:104410000FFC02F005FC1037BD4680BDE8340020DB
:1044200080B485B000AF0346FB800023FB60B7F982
:104430000630002B12DBFB8803F00F03BB600B4A36
:10444000BB68DB0013449B88B7F906201BB29A4275
:1044500004D1064ABB6852F83330FB60FB6818464B
:104460001437BD465DF8047B704700BF5C34002004
:1044700080B582B000AF78607B68002B0AD07B6883
:104480001B889BB21BB2002B02DB7B6801221A80C7
:10449000002306E0FFF7ACF80246162313604FF046
:1044A000FF3318460837BD4680BD00BF80B586B0D3
:1044B00000AF786000237B614FF0FF333B617B6886
:1044C000002B43D0EFF3108372B6BB81BB89FB8115
:1044D0007B681B889BB21BB247F6FF72934203D1E5
:1044E0001F487621FDF772FF7B681B889BB29BB249
:1044F0009BB201339BB29AB27B681A807B681B889F
:104500009BB21BB2002B17DC164B1B687B6102E0D1
:104510007B691B687B617B69002B04D07B695A6BCC
:104520007B689A42F4D17B69002B05D07B6900221D
:104530005A63786903F0CEF800233B61FB897B81E5
:104540007B8913F0010F00D162B604E0FFF750F849
:104550000246162313603B6918461837BD4680BDD6
:10456000A0E502083034002080B487B000AF786046
:10457000EFF3108372B6FB81FB89FB827B689B7E25
:10458000052B0FD17B685B6B3B613B691B889BB242
:104590009BB29BB201339BB29AB23B691A807B6893
:1045A00000225A63FB8ABB81BB8913F0010F00D143
:1045B00062B61C37BD465DF8047B704780B586B097
:1045C00000AF78603960EFF3108372B6FB81FB892E
:1045D000FB827B689B7E052B15D17B685B6B3B6107
:1045E0003B691B889BB29BB29BB201339BB29AB2D0
:1045F0003B691A807B6800225A637B683A68DA65F7
:10460000786803F067F8FB8ABB81BB8913F0010F60
:1046100000D162B61837BD4680BD00BF80B586B0F8
:1046200000AF78600B467B8013467B707A88134618
:104630005B001344DB00184602F008FBF860FB68DF
:104640007B6100233B610DE07B697A781A757B6999
:1046500003F118027A611846796801F0F5FD3B69AB
:1046600001333B617A883B699A42EDDCFB6818466E
:104670001837BD4680BD00BF80B586B000AF7860FA
:104680000B467B8013467B707B881B01184602F02B
:10469000DDFAF860FB687B6100233B610DE07B691C
:1046A0007A781A737B6903F110027A611846796887
:1046B00001F0CAFD3B6901333B617A883B699A424C
:1046C000EDDCFB6818461837BD4680BD80B500AFED
:1046D000204B00221A601F4B00225A601E4B002202
:1046E0001A601D4B00225A601C4B00221A601B4BA3
:1046F00000225A601A4B00221A60194B00225A609D
:10470000184B00221A60174B00225A6012481021E1
:104710000022FFF783FF0246134B1A600F4808215F
:104720000222FFF77BFF0246104B1A6000F024F8CC
:104730000B4810210022FFF79FFF02460C4B1A6026
:10474000084808210222FFF797FF0246094B1A602A
:1047500080BD00BF0038002008380020103800203D
:104760002038002018380020DC280020E028002015
:10477000E4280020E828002080B582B000AF4FF484
:10478000A07002F063FA02460C4B1A600B4B1B68D8
:104790007B6000233B600AE07B6803F114027A60CF
:1047A0001846074901F050FD3B6801333B603B6808
:1047B0000F2BF1DD0837BD4680BD00BFD828002093
:1047C0000038002080B584B000AF78600A4B1B68C9
:1047D000BB604FF0FF33FB607B68002B07D0B868ED
:1047E00000F00CF802467B681A600023FB60FB684F
:1047F00018461037BD4680BD3834002080B588B0DB
:1048000000AF78607B689B68BB610023FB60EFF3BF
:10481000108372B6BB82BB8AFB82BB695B6AFB6199
:104820000BE0FB691B791A4607F10C031846114689
:1048300001F038FEFB691B68FB61FB69002BF0D1BE
:10484000FB8A7B827B8A13F0010F00D162B6FB6882
:1048500018462037BD4680BD80B584B000AF786073
:1048600039600023FB607B68002B13D0FFF714F83E
:104870007B68DB69FB6002E0FB681B68FB60FB6830
:10488000002B05D0FB681B7C1A463B689A42F3D18B
:10489000FFF720F8FB6818461037BD4680BD00BF03
:1048A00080B584B000AF02F0C7FD0346002B0BD0EB
:1048B000184801F021FDF860FB68002B25D116484F
:1048C00001F01AFDF86020E0EFF3108372B63B812F
:1048D0003B897B810F4801F00FFDF8607B89FB80ED
:1048E000FB8813F0010F00D162B6FB68002B0CD1DE
:1048F000FB68002B03D1182002F0A8F9F860FB68D0
:10490000002B02D0FB6801221A75FB68184610378D
:10491000BD4680BD083800201038002080B586B024
:1049200000AF78607B681B7D002B11D1EFF3108303
:1049300072B6BB82BB8AFB827868154901F084FCA1
:10494000FB8A7B827B8A13F0010F00D162B61CE0E8
:104950007B681B7D022B11D1EFF3108372B63B8273
:104960003B8AFB8278680B4901F06EFCFB8AFB8175
:10497000FB8913F0010F00D162B606E07B681B7D56
:10498000012B02D17868FFF721FD1837BD4680BDA5
:10499000083800201038002080B584B000AF78605F
:1049A00002E0F868FFF7BAFF7B684033184601F071
:1049B000A3FCF860FB68002BF3D102E0F868FFF776
:1049C000ADFF7B684833184601F096FCF860FB6841
:1049D000002BF3D17B684FF0FF329A637B68002293
:1049E000DA631037BD4680BD80B584B000AF786013
:1049F00002E0F86800F074F97B681C33184601F097
:104A00007BFCF860FB68002BF3D102E0B868FFF78D
:104A100085F87B682433184601F06EFCB860BB68EB
:104A2000002BF3D11037BD4680BD00BF80B588B0E4
:104A300000AF78606FF015037B61EFF3108372B6FF
:104A40003B823B8A7B827B68002B42D07B681B7B4E
:104A500003F00103002B3CD00023BB61234B1B68F8
:104A6000FB6104E0FB69BB61FB691B68FB61FB69DF
:104A7000002B03D0FA697B689A42F3D1FB69002BC3
:104A800003D11B486E21FDF7A1FCFB691B68002BBD
:104A900008D0FB691B68FA6912689168FA69926824
:104AA0000A449A60BB69002B04D0B8690F4901F031
:104AB00043FC02E00D4801F01FFC7B6800221A60F5
:104AC0007B681B7B23F00103DAB27B681A73002337
:104AD0007B617B8AFB81FB8913F0010F00D162B6F9
:104AE0007B6918462037BD4680BD00BF34380020A2
:104AF000B8E5020880B584B000AF7860EFF31083AA
:104B000072B6BB81BB89FB817B681B7B03F0010311
:104B1000002B02D07868FFF789FF7B681B7B03F0CE
:104B20000203002B0AD0FB897B817B8913F0010FE4
:104B300000D162B67868FFF749FC16E07B681B7B02
:104B400003F00403002B10D178680A4901F07CFBC4
:104B5000094B1B8801339AB2074B1A80FB893B81B2
:104B60003B8913F0010F00D162B6002318461037BD
:104B7000BD4680BD283800203038002080B582B086
:104B800000AF78607B681B6B002B04D07B681B6BCD
:104B90001846FFF71BFC7B680022DA627B68002264
:104BA0001A630837BD4680BD80B582B000AF0C489F
:104BB00001F0A2FB78607B68002B0CD1FFF7DCFDD5
:104BC000074801F099FB78607B68002B03D105480A
:104BD0005E21FDF7FBFB7B6818460837BD4680BDAC
:104BE00000380020CCE5020880B588B000AFF8603E
:104BF000B9607A60394B1B68BB61BB699B687B619C
:104C0000FB681F2B07D9FEF7F3FC0246162313603F
:104C10004FF0FF335EE07869F968FFF71DFEF86139
:104C20007B68002B18D0FB69002B0CD0FB695A68FD
:104C30007B681A60FB699A687B685A60FB69DA686E
:104C40007B689A6008E07B6800221A607B6800221B
:104C50005A607B6800229A60BB68002B01D1002358
:104C600038E0BB681B68002B0CD1FB69002B30D0EF
:104C70007B691C33F869194601F006FBF86900F0FE
:104C80002FF826E0FB69002B17D1FFF78DFFF861A5
:104C9000FB69002B07D1FEF7ABFC02460C23136027
:104CA0004FF0FF3316E0FB68DAB2FB691A747B69D8
:104CB0001C33F869194601F0C7FABB681A68FB692A
:104CC0005A60BB685A68FB699A60BB689A68FB695E
:104CD000DA60002318462037BD4680BD38340020F6
:104CE00080B582B000AF78607868034901F0ACFA13
:104CF0000837BD4680BD00BF0038002080B582B0B7
:104D000000AF124B7B60124B00221A60104B002246
:104D10005A60104B00221A600E4B00225A6000238A
:104D20003B600AE07B6803F118027A601846084984
:104D300001F08AFA3B6801333B603B68072BF1DDE9
:104D4000054B08221A800837BD4680BDEC2800209C
:104D500028380020343800203038002080B582B058
:104D600000AF78600B46FB700FE0FEF741FC034696
:104D70001B68042B03D00A489021FDF727FBFB7822
:104D8000002B02D06FF0030306E078681CF042FCB1
:104D90000346002BE9D1002318460837BD4680BDE5
:104DA00000E6020880B584B000AF78600B46FB7067
:104DB0000023FB6020E07A68FB680C339B001344FF
:104DC0005B68BB60BB68002B13D0BB685A7ABB68BA
:104DD000197AFB780B40DBB21343DAB2BB685A7224
:104DE000BB685B7A002B04D0BB685B681846FFF792
:104DF0005DFBFB680133FB60FB68012BDBDD1037DB
:104E0000BD4680BD80B588B000AFF860B96013467C
:104E1000FB71FB68DB8A9BB21BB20133FB61FB6851
:104E20005B8B1AB2FB699A4201DC0023FB61FB68D1
:104E30001B8B9BB21AB2FB699A420FD0FB68DA69EE
:104E4000FB68DB8A9BB21BB21344BA68D2B21A70F9
:104E5000FB699AB2FB68DA82002339E0FB79002B08
:104E600032D0EFF3108372B6BB82BB8AFB82FB6841
:104E70001B8B9BB21AB2FB699A4202D00023BB6122
:104E800015E0FB6801225A70FB68DB6A5B6AF86810
:104E900001219847FB680C3318460121FFF75EFF9C
:104EA000B861FB68DB6A5B6AF86800219847FB8A97
:104EB0007B827B8A13F0010F00D162B6BB69002BA5
:104EC00005DA6FF0030303E06FF00A0300E0AEE7DA
:104ED00018462037BD4680BD80B586B000AFF8606B
:104EE000B9607A607B687B6110E0BB685A1CBA606D
:104EF0001B783B613B690A2B02D10D20FCF7B8FA05
:104F00003869FCF7B5FA7B68013B7B607B68002B56
:104F1000EBD17B6918461837BD4680BD80B586B099
:104F200000AF78607B68143318460121FFF716FF45
:104F300078617B69002B46DBEFF3108372B63B820E
:104F40003B8A7B8200237B6115E07B6801225A70DB
:104F50007B68DB6A5B6A7868012198477B680C3361
:104F600018460121FFF7FAFE78617B68DB6A5B6A0D
:104F70007868002198477B69002B09DB7B68DB8A16
:104F80009AB27B681B8B9BB212B21BB29A42DCD1E5
:104F90007B8AFB81FB8913F0010F00D162B67B692C
:104FA000002B0BDB02E00A4801F07EFD7B68DB6A28
:104FB000DB6A786898470346002BF4D07B6814338B
:104FC0001846FFF773FA7B6918461837BD4680BD4F
:104FD00020A1070080B588B000AF78607B689B682F
:104FE000BB61BB691B697B617B690A331846012180
:104FF000FFF7B4FEF861FB69002B01DAFB696EE094
:105000007B691B780133FB74FB7C002B03D16FF0B1
:105010001703FB615DE0FB7C012B57D1EFF310839D
:1050200072B6FB81FB893B827B69DB78002B10D158
:105030007B69DB6A1B6878699847F861FB69002B1C
:1050400007DA3B8ABB81BB8913F0010F00D162B63E
:105050003FE07B69DB6A9B6878699847F861FB6988
:10506000002B0CDA7B69DB6A5B68786998473B8ABE
:105070007B817B8913F0010F00D162B629E07B6947
:105080000022DA827B6900221A837B6900225A841B
:105090007B6900229A847B6900229A807B69DB7895
:1050A000002B03D07B690522DA8002E07B690022B5
:1050B000DA807B69DB6A9B697869012198473B8AC2
:1050C0003B813B8913F0010F00D162B67B69FA7C0A
:1050D0001A707B690A331846FFF7E8F9FB6918462E
:1050E0002037BD4680BD00BF80B586B000AF786078
:1050F0007B689B687B617B691B693B613B690A3309
:1051000018460021FFF72AFE3B691B78012B0CD9BA
:105110003B691B78013BDAB23B691A703B690A3381
:105120001846FFF7C3F9002350E03B6900221A70CC
:105130003B69DB6A9B693869002198477B681B687B
:1051400003F04003002B02D13869FFF7E7FEEFF3CD
:10515000108372B6BB81BB89FB813B69DB6ADB686C
:10516000386998473B69DB78002B04D13B69DB6ADF
:105170005B6838699847FB897B817B8913F0010F55
:1051800000D162B63B690C33184600211CF090FB3D
:105190003B690E33184600211CF08AFB3B6914332F
:1051A000184601211CF084FB3B692033184601217D
:1051B0001CF07EFB3B691033184601211CF078FB84
:1051C0003B690A331846FFF771F900231846183770
:1051D000BD4680BD80B58CB000AFF860B9607A6024
:1051E000FB689B687B627B6A1B693B623B6A20337E
:1051F000FB610023FB62FB6918460121FFF7AEFD4E
:10520000B861BB69002B01DABB69B5E0A9E0FB69B5
:105210009B887B85FB695B889BB2B7F92A201BB210
:105220009A4252D0FB699A68B7F92A3013441B7826
:1052300087F829307B8D01339BB27B85FB69DB8846
:10524000B7F92A201BB29A4201DB00237B85FB6958
:105250007A8D9A803B6A9B8803F02A03002B2AD020
:1052600097F829300A2B09D13B6A9B8803F0200369
:10527000002B03D00D2387F829300CE097F8293054
:105280000D2B08D13B6A9B8803F00203002B02D050
:105290000A2387F8293097F829300D2B0CBF0123FA
:1052A0000023DBB21A463B6A9B8803F008031340D5
:1052B000002B00D055E0BB685A1CBA6097F8292033
:1052C0001A70FB6A0133FB624BE0FB6A002B00DDC6
:1052D0004CE0FB681B6803F04003002B03D06FF029
:1052E0000A03FB6242E03B6ADB6A9B69386A002181
:1052F0009847FB695B889AB2FB699B889BB212B2A4
:105300001BB29A4227D1EFF3108372B6BB82BB8ADD
:10531000FB823B6ADB6A9B69386A012198473B6ADA
:1053200001229A703B6A0E3318460121FFF716FDE1
:10533000B861FB8A7B827B8A13F0010F00D162B6D1
:10534000BB69002B0DDAFB6A002B03D16FF003035E
:10535000FB620BE00AE03B6ADB6A9B69386A012169
:105360009847FA6A7B689A42FFF451AF3B6A203350
:105370001846FFF79BF8FB6A18463037BD4680BDDC
:1053800080B58CB000AFF860B9607A60FB689B684C
:105390003B623B6A1B69FB617B68FB6202F04CF875
:1053A0000346002B04D11CF065F80346002B1BD0EC
:1053B000FB69DB78002B14D0EFF3108372B6FB820D
:1053C000FB8A3B83F869B9687A68FFF785FDB862A4
:1053D0003B8BBB82BB8A13F0010F00D162B6BB6A64
:1053E00088E04FF0FF3385E0FB6914331846012154
:1053F000FFF7B4FCB862BB6A002B01DABB6A79E044
:10540000FB681B6803F04003002B0CBF0123002343
:10541000DBB2FB76FB69DB6A5B6AF86900219847BF
:105420004FE0BB685A1CBA601B7887F8273000230E
:10543000BB62FB69DB8803F00103002B23D097F8E4
:1054400027300D2B08D1FB69DB8803F00803002B04
:1054500002D00A2387F8273097F827300A2B12D179
:10546000FB69DB8803F02403002B0CD0FB7EF8697A
:105470000D211A46FFF7C6FCB862BB6A002B02DAA0
:10548000BB6AFB6220E0BB6A002B08D197F827209B
:10549000FB7EF86911461A46FFF7B4FCB862BB6A96
:1054A000002B0BDAFA6A7B689A4204D9FA6A7B68A5
:1054B000D31AFB6208E0BB6AFB6205E07B68013B34
:1054C0007B607B68002BACD1FB69DB8A9AB2FB69FD
:1054D0001B8B9BB212B21BB29A4205D0FB69DB6AEE
:1054E0005B6AF86901219847FB6914331846FEF797
:1054F000DDFFFB6A18463037BD4680BD80B592B0EF
:1055000000AFF860B9607A60FB689B687B637B6B77
:105510001B693B633B6BDB6A1B69F868B9687A6897
:10552000984778647B6C13F1190F40F0EC80BB68EE
:1055300040F20532934216D040F20532934209DC24
:10554000B3F58A7F00F0B38040F21512934200F069
:10555000D48010E140F2063293423AD040F2073252
:1055600093426CD007E1EFF3108372B6FB83FB8BA1
:10557000FB853B6B9B8C9AB23B6B5B8C9BB212B2F4
:105580001BB29A420ADC3B6B5B8C9BB21AB23B6B40
:105590009B8C9BB21BB2D31A3B640DE03B6BDB8C44
:1055A0001AB23B6B5B8C9BB219B23B6B9B8C9BB270
:1055B0001BB2CB1A13443B64FB8DBB83BB8B13F034
:1055C000010F00D162B67B683A6C1A6000237B64DD
:1055D00098E0EFF3108372B67B837B8BBB853B6BCC
:1055E0001B8B9AB23B6BDB8A9BB212B21BB29A4204
:1055F0000ADC3B6BDB8A9BB21AB23B6B1B8B9BB208
:105600001BB2D31AFB630DE03B6B5B8B1AB23B6B97
:10561000DB8A9BB219B23B6B1B8B9BB21BB2CB1AC2
:105620001344FB63BB8D3B833B8B13F0010F00D115
:1056300062B67B68FA6B1A6000237B6462E0EFF36A
:10564000108372B6FB82FB8A7B853B6BDB8A9AB246
:105650003B6B1B8B9BB212B21BB29A420BDA3B6BB9
:105660001B8B9BB21AB23B6BDB8A9BB21BB2D31A69
:10567000013BBB630EE03B6B5B8B1AB23B6B1B8B3E
:105680009BB219B23B6BDB8A9BB21BB2CB1A1344A1
:10569000013BBB637B8DBB82BB8A13F0010F00D142
:1056A00062B67B68BA6B1A6000237B642AE0EFF372
:1056B000108372B67B827B8A3B857B68002B02D08D
:1056C0007B68012B05D13B6B00225A843B6B002287
:1056D0009A847B68022B02D07B68012B05D13B6B3F
:1056E0000022DA823B6B00221A833B8D3B823B8A8D
:1056F00013F0010F00D162B604E0386BFFF70EFC27
:10570000786400BF37E07B6C002B34D1BB6840F27B
:105710000112934203D0B3F5817F16D02BE07B6852
:105720007B627B6A002B03D16FF015037B6422E060
:105730003B6B9A887B6A1A803B6BDA887B6A5A805B
:105740003B6B1A897B6ADA8015E07B683B623B6AB7
:10575000002B03D16FF015037B640CE03B6A1A88C1
:105760003B6B9A803B6A5A883B6BDA803B6ADA88EB
:105770003B6B1A8100BF7B6C18464837BD4680BD25
:1057800080B58CB000AFF860B9601346FB71FB6860
:105790009B68FB61FB691B69BB61BB69002B02D085
:1057A000BB68002B02D16FF01203AFE0BB6910336E
:1057B00018460121FFF7D2FA78627B6A002B01DAE2
:1057C0007B6AA3E0FB79002B00F0868000233B621C
:1057D0001AE0BA693B6A0C339B0013445B68002BE8
:1057E0000FD1BA693B6A0C339B001344BA685A6004
:1057F0003B6A0C339B00BA6913441A1DBB68DA601C
:1058000005E03B6A01333B623B6A012BE1DD3B6A09
:10581000012B06DDBB680022DA606FF00F037B62AC
:105820006EE0002387F82F30BB691433184600213F
:10583000FFF794FABB69DB8A9BB21BB20133BB62F0
:10584000BB695B8B1AB2BB6A9A4201DC0023BB6264
:10585000BB691B8B9BB21AB2BB6A9A420BD0BB6866
:105860001B7ADBB203F00203DAB297F82F3013434E
:10587000DBB287F82F30BB6914331846FEF716FEEB
:10588000BB69203318460021FFF768FABB695B8CBF
:105890009AB2BB699B8C9BB212B21BB29A420BD0DC
:1058A000BB681B7ADBB203F00103DAB297F82F3042
:1058B0001343DBB287F82F30BB6920331846FEF75D
:1058C000F5FD97F82F30002B1AD097F82F30B869D4
:1058D0001946FFF767FA13E0BB68DB68002B0FD0AF
:1058E000BB68DB687B617B69002B03D16FF004032D
:1058F0007B6205E07B6900221A60BB680022DA60E7
:10590000BB6910331846FEF7D1FD7B6A1846303765
:10591000BD4680BD80B582B000AF786039603B681D
:10592000143318460021012200F07EFD3B6820332D
:1059300018460021012200F077FD3B680A33184623
:105940000021012200F070FD3B680C331846002155
:10595000002200F069FD3B680E331846002100224A
:1059600000F062FD3B68103318460021012200F070
:105970005BFD3B680C331846002100F073FD3B686B
:105980000E331846002100F06DFD786805494FF48C
:10599000DB723B6811F0A4F9034618460837BD4690
:1059A00080BD00BFE0E5020880B582B000AF78603E
:1059B0007B689B78DBB2002B07D07B6800229A7053
:1059C0007B680E331846FEF771FD78680121FFF7FA
:1059D000E9F90837BD4680BD80B582B000AF786078
:1059E0007B685B78DBB2002B07D07B6800225A70A3
:1059F0007B680C331846FEF759FD78680221FFF7E3
:105A0000D1F90837BD4680BD80B584B000AF78605D
:105A10000023FB8124E07B68DB6A1B6A7A68D1691A
:105A20007A68128B92B212B20A44127878681146E0
:105A30009847FB890133FB817B681B8B9BB29BB230
:105A400001339BB29BB29BB27A68194611837A6884
:105A5000518B1AB20BB29A4202DB7B6800221A8386
:105A60007B68DB8A9AB27B681B8B9BB212B21BB23B
:105A70009A4207D07B68DB6A9B6A7868984703463E
:105A8000002BC8D17B68DB8A9AB27B681B8B9BB2E8
:105A900012B21BB29A4205D17B68DB6A5B6A7868F6
:105AA00000219847FB89002B02D07868FFF794FF0C
:105AB0001037BD4680BD00BF80B588B000AF7860AC
:105AC0007B6820337B617B695B889BB21BB20133AF
:105AD000FB6100237B837B69DB881AB2FB699A42F6
